:020000040800F2
:10000000A004002001010008B71C0008991800088E
:10001000B51C0008810B0008751D000800000000D9
:10002000000000000000000000000000DB1C0008D1
:10003000830B000800000000D91C0008DD1C00082C
:100040001B0100081B0100081B0100081B01000820
:100050001B0100081B0100081B0100081B01000810
:100060001B0100081B0100081B0100081B01000800
:100070001B0100081B0100081B0100081B010008F0
:100080001B0100081B0100081B0100081B010008E0
:100090001B0100081B0100081B0100081B010008D0
:1000A0001B0100081B0100081B0100081B010008C0
:1000B0001B0100081B0100081B0100081B010008B0
:1000C0001B0100081B0100081B0100081B010008A0
:1000D0001B0100081B0100081B0100081B01000890
:1000E0001B0100081B0100081B010008DFF80CD0F1
:1000F00000F0F2FB0048004731280008A00400206F
:100100000648804706480047FEE7FEE7FEE7FEE7B1
:10011000FEE7FEE7FEE7FEE7FEE7FEE72D1D00082F
:10012000ED000008202A04DB203A21FA02F0002129
:10013000704721FA02F3D040C2F1200291400843F7
:1001400019467047D2B201E000F8012B491EFBD2DC
:1001500070470022F6E710B513460A4604461946D2
:10016000FFF7F0FF204610BDF0B480EA0102D40F83
:100170004200B2EB410F02D20246084611464A0045
:1001800042D0C30DDDB2C1F3C752AD1A202D35DA0E
:10019000C1F3160141F4000204B15242C5F1200638
:1001A00002FA06F12A411044B3EBD05F23D0C4B168
:1001B000012DA0EBC35009DCF0BC4FF0004202EA75
:1001C000C352DBB200F5000000F0CBBA400000F1F2
:1001D000807000EBC350A0F1807040EAD1704900FC
:1001E00009E0490841EAC071A0EBC35000F50000E6
:1001F000400800EBC350F0BC00F0AABA61420122F3
:1002000002EB4101001BF6E7F0BC704781F00041B2
:10021000AAE780F00040A7E780EA010210B502F0EB
:100220000043400022D04A001FD0010E01EB1261B2
:10023000C0F35600C2F3560240F4000042F400023C
:10024000A0FB022000047F39140400D0401C50EAB7
:10025000124001D44000491EC2B20C0604EBD0107B
:10026000401C4008802A02D003E0002010BD20F08E
:100270000100002900DA0020184310BD30B480EAE4
:10028000010202F0004530F0004221F0004013D09E
:1002900090B1C30DD40DC2F31601C0F31600E41AD9
:1002A00041F4000140F400027D34914201D3641C0A
:1002B00000E04900002C02DA30BC002070474FF407
:1002C00000000023914201D3891A034340084FEAFA
:1002D0004101F7D151B1914202D14FF0004105E007
:1002E00002D24FF0010101E06FF0010103EBC450B5
:1002F000284430BC00F02CBA2DE9FE4F804681EA3C
:100300000300C00F0C46009021F0004123F000458F
:10031000B8EB0200A94105D24046214690461C4652
:100320000B46024623F00040104347D0270DC7F389
:100330000A00C3F30A510290401A019040286BDA78
:10034000C3F3130040F4801B0098924620B10023B1
:10035000D2EB030A63EB0B0B01985946C0F1400244
:10036000504600F0D4F906460D4650465946019ACB
:1003700000F0DCF910EB08006141002487EA11521B
:1003800084EAE7731A4340D0009A62B3019A012AC3
:100390004FEA075215DC001B61EB02014FF00042EF
:1003A00002EA0752CDE90042001C41F580113246B5
:1003B0002B4600F013FA03B0BDE8F08F404621460B
:1003C000F9E7001B61EB0201001C41F580130018E6
:1003D0005B412018A2F5001747EB030140EAD570F6
:1003E000B6196D4111E06D084FEA360645EAC07551
:1003F0004FEA0752001B61EB0201001C41F580111E
:1004000049084FEA30000019514132462B4603B0EB
:10041000BDE8F04F00F0D3B900980122400000235E
:10042000D0EB020263EBE073009821464FEAE074E0
:10043000B8EB000061EB0401E9E783F000435BE700
:1004400081F0004158E72DE9FE4F81EA030404F0F2
:10045000004421F0004100944FF0000B23F00043D2
:1004600050EA01045ED052EA03045BD0C3F30A549D
:10047000C1F30A552C44A4F2F3340194A0FB0254B6
:10048000C1F3130141F48011C3F3130343F4801348
:1004900001FB024400FB034E840A970A44EA81549C
:1004A00047EA8357A4FB076802958D0A05FB078579
:1004B0004FEA932C04FB0C542705029D4FEA065883
:1004C00047EA1637B5EB08056EEB070C870E920E60
:1004D00047EA811742EA8312A7FB0201B6EB0B0140
:1004E00064EB00042B0D43EA0C335E1844EB1C5004
:1004F000DA465146E7FB0201C5F313044FEA0B331A
:1005000043EA14534FEA0432019C43EA0603A4F180
:100510000C040294009CCDE900B400F05FF903B034
:10052000BDE8F08F00200146F9E72DE9F04D81EAA2
:10053000030404F0004B21F0004514464FF0000A7C
:1005400023F0004150EA050220D054EA01021DD0F8
:10055000C5F30A570246C5F31303C1F31300C1F3F1
:100560000A5640F4801543F48013A7EB0608101BCD
:10057000D64608F2FD3873EB050002D308F10108F6
:1005800001E092185B41B8F1000F03DA0020014648
:10059000BDE8F08D00204FF48011064684460EE041
:1005A000171B73EB050705D3121B63EB050306430B
:1005B0004CEA010C49084FEA300092185B4150EABE
:1005C0000107EDD152EA030012D082EA040083EA67
:1005D0000501084305D0101BAB4106D201220023C0
:1005E00006E000224FF0004302E06FF001025310DA
:1005F0001AEB06004CEB085110EB0A0041EB0B0123
:10060000BDE8F04D00F0DBB80EB540F23341029189
:100610000021CDE900110A460B4600F0DFF803B0D7
:1006200000BD00F0004230F000400AD0C10D01F5DD
:100630006071C0F3160042EA0151C208400711433D
:10064000704700200146704701F0004330B421F0AC
:10065000004150EA010206D00A0DA2F56072C1F312
:100660001301002A02DC30BC00207047440F44EA2A
:10067000C104C100E01830BC00EBC25000F068B803
:1006800030B50B46014600202022012409E021FA62
:1006900002F59D4205D303FA02F5491B04FA02F55F
:1006A0002844151EA2F10102F1DC30BD2DE9F05FF6
:1006B0000546002092469B468846064681464024D1
:1006C0001BE02846414647462246FFF72BFD53468E
:1006D0005A46C01A914110D311461846224600F0DE
:1006E00016F82D1A67EB01084F462246012000211B
:1006F00000F00DF817EB00094E41201EA4F1010493
:10070000DFDC484631462A464346BDE8F09F202AB2
:1007100004DB203A00FA02F1002070479140C2F158
:10072000200320FA03F3194390407047202A06DB88
:10073000CB17203A41FA02F043EAE07306E041FAAF
:1007400002F3D040C2F1200291400843194670479D
:100750000029A8BF7047401C490008BF20F00100D5
:10076000704710B4B0FA80FC00FA0CF050EA0104B3
:1007700004BF10BC704749B1CCF1200421FA04F445
:1007800011FA0CF118BF012121430843A3EB0C011E
:10079000CB1D4FEA00614FEA102042BF002010BC81
:1007A000704700EBC35010440029A4BF10BC704731
:1007B000401C490008BF20F0010010BC704710B574
:1007C000141E73F1000408DA401C41F10001921874
:1007D0005B411A4301D120F0010010BD2DE9F04D1D
:1007E00092469B4611B1B1FA81F202E0B0FA80F272
:1007F00020329046FFF78BFF04460F4640EA0A007E
:1008000041EA0B0153465A46084313D0114653EAB6
:10081000010019D0C8F140025046FFF783FC05469D
:100820000E46504659464246FFF771FF084305D031
:10083000012004E020463946BDE8F08D0020054344
:1008400046EAE0762C4337430A986305E40AA0EBB6
:1008500008000022FD0A44EA47540A3002D500206D
:100860000146E9E7010510196941DDE9084500196C
:100870006941BDE8F04DA2E7C1F30A52C1F313018B
:1008800040F2FF3341F480119A4202DA002001461F
:10089000704740F233439A42A2F2334202DC5242A2
:1008A000FFF740BCFFF733BF30B5041E71F1000401
:1008B00004DB4FF00044404264EB0101141E73F16D
:1008C000000405DB1C464FF00043524263EB040377
:1008D000994208BF904230BD064C074D06E0E068E3
:1008E00040F0010394E8070098471034AC42F6D377
:1008F000FFF700FCC4290008E42900082DE9F843AB
:100900000025324FDFF8C880DFF8C890324C4FF432
:10091000FA7646E0401CA06242F210702E4A009027
:1009200003230C3290212D4800F0C8FA2A490C31DB
:100930000878607049788028A17041EA00201ED9AB
:10094000FFF762FE02460B4600202549FFF775FDC2
:10095000FFF77AFE6062FFF764FE3A464346FFF710
:1009600072FD00224B46FFF7E0FDFFF76DFE2062AF
:10097000E169FFF7F9FBE0610120E06211E0FFF7B8
:1009800043FE3A464346FFF75EFD00224B46FFF723
:10099000CCFDFFF759FE2062E169FFF7E5FBE56258
:1009A000E061A06AB042B5DD0E49E069FFF766FC80
:1009B0000D49FFF731FC2062E16A012902D180F084
:1009C00000402062A562E561BDE8F883FCA9F1D290
:1009D0004D62F03FC0FFDF401000002048000020C3
:1009E0000000F0400000FA4300803B4038B5204C46
:1009F0004FF4FA7524E0401CA06242F210701C4AC9
:100A000000900323921D90211A4800F057FA1848CD
:100A1000801D017861704078A07040EA0120FFF7E6
:100A2000F3FD154A154BFFF70EFD0022144BFFF79F
:100A30007CFDFFF709FE2062E169FFF795FBE061AD
:100A4000A06AA842D7DD0F49E069FFF717FC2062D2
:100A5000E16A012902D180F0004020626178002023
:100A6000802900D32062A062E061206A38BD0000C6
:100A70001000002048000020FCA9F1D24D62104077
:100A8000C0FFDF400000FA4310B500F049F8322003
:100A900000F078F8FFF732FF1E4C6061FFF7C1FDF0
:100AA00002460B461CA104F1300001F065F9492013
:100AB00001F024FF04F1300001F02BFF00F048F8B2
:100AC000FFF794FF2061FFF7ACFD02460B4612A131
:100AD00004F1300001F050F9092001F00FFF04F19A
:100AE000300001F016FFD4E90401FFF795FBA06187
:100AF000FFF797FD02460B4607A104F1300001F015
:100B00003BF91D2001F0FAFE04F13000BDE8104071
:100B100001F0FFBE10000020252E346620000000EA
:100B200038B542F210740323074A90210748009415
:100B300000F0CCFA044A0123093A902103480094BA
:100B400000F0C4FA38BD0000190000204800002061
:100B500038B542F210740323074A902107480094E5
:100B600000F0B4FA044A0123D21E902103480094F5
:100B700000F0ACFA38BD000013000020480000204F
:100B8000FEE7704770B5044600F0F2F80546601CB9
:100B900002D004480078044400F0EAF8401BA04268
:100BA000FAD370BD000000202DE9F84FDFF890A1C6
:100BB00000220AF1040B144601274FF00F090BF134
:100BC000040E00BF0B6807FA04F52B40AB4274D14A
:100BD000DFF870C14E68A6EB0C0866452BD00DDC23
:100BE000032E34D005DC36B3012E19D0022E2FD1BE
:100BF0001BE0112E16D0122E2AD119E0B8F5881F4D
:100C000019D006DCB8F5803F15D0B8F5801F1FD18C
:100C100011E0B8F5001F0ED0B8F5041F18D10AE096
:100C2000CA6815E0CA68121D12E0CA6808320FE0EF
:100C3000CA680C320CE08A682AB1012A4FF0080217
:100C400003D0456104E0042202E0056100E00022D7
:100C5000FF2B01D8064601E000F104064FEA8405A7
:100C600001D9A5F12005D6F800C009FA05F82CEA4B
:100C7000080C02FA05F54CEA050CC6F800C04D68F0
:100C8000ED0057D5304DAE6946F00106AE61AD6955
:100C900024F0030605F0010500952C4D06EB050C2C
:100CA000DCF80850A6074FEA167809FA08F6B543AB
:100CB000274EB04202D1002610E03BE0254EB04264
:100CC00001D101260AE0244EB04201D1022605E0FE
:100CD000224EB04201D1032600E0042606FA08F6AF
:100CE0002E43CCF808604D68DAF80060ED035546F5
:100CF00001D51E4300E09E432E604D68DBF8006086
:100D0000AD035D4601D51E4300E09E432E604D6855
:100D1000DEF80060ED02754601D51E4300E09E43FB
:100D20002E604D68AD020E4D2E6801D51E4300E0C9
:100D30009E432E60641C102CFFF444AFBDE8F88F76
:100D400000040140000011100010024000000140AA
:100D500000080140000C0140001001400014014057
:100D60000C0401400AB1016170470904FBE700006F
:100D700001488068704700000000002070B5040042
:100D80001BD094F83D00002520B984F83C50204643
:100D900000F038FA242084F83D002068016821F032
:100DA0000101016000F09CFB404A6168914201D85A
:100DB0003F4900E03F49884201D2012070BD3E49D1
:100DC0002368B0FBF1F159606368934206D94FF490
:100DD000967359434FF47A73B1FBF3F12368491CBE
:100DE00019626168914210D84900401EB0FBF1F2CF
:100DF000521CC2F30B02042A01D2042022E0B0FBF1
:100E0000F1F0401CC0F30B001CE0A368CBB301EB76
:100E1000C10202EB0116421EB2FBF6F2521C42F472
:100E20008042120536D06BB301EBC10202EB011117
:100E3000401EB0FBF1F0401CC0F30B0040F48040BA
:100E400040F400402168C861D4E9070108432168E3
:100E50000860D4E90310084321688860D4E90501DB
:100E600008432168C8602068016841F00101016001
:100E70002564202084F83D00256384F83E5000203E
:100E800070BD00E008E001EB4106421EB2FBF6F245
:100E9000521CC6E70120D5E701EB4101401EB0FB23
:100EA000F1F0401CC0F30B00CAE70000A08601006F
:100EB00080841E0000093D0040420F002DE9F84FDC
:100EC0001F4690468A460446DDF82890FFF750FFFB
:100ED000054694F83D0020287ED119230122784947
:100EE0002046009500F0CDFD0028F5D194F83C0097
:100EF000012871D0012084F83C0020680168C907EE
:100F000003D1016841F0010101602068016821F40A
:100F100000610160222084F83D00102084F83E002A
:100F200000262664C4F8248067856648E062608DE8
:100F300020852B464A465146204600F0C2FC28B187
:100F4000206C84F83C60042850D073E0208D5E4F04
:100F500068B1012814D00228206801681ED041F42D
:100F60008061016020684169806900909AE0206892
:100F7000416981690091016841F40071016091E06B
:100F80002068016821F48061016072B620684169BF
:100F900081690091016841F400710AE041F4006147
:100FA000016072B62068416981690091016821F48D
:100FB0008061016062B675E0032850D801280CD02A
:100FC00002284B464FF0000239462046009512D0C9
:100FD00000F057FD70BB13E070E02A4649462046FA
:100FE00000F0C4FD28B1206C202823D00120BDE8EA
:100FF000F88F20684BE000F044FDD8B972B61BE0D2
:101000002068016821F48061016072B6206801697E
:10101000606A421C62620170208D401E2085608DD6
:10102000401E60854B46002239462046009500F060
:1010300028FD08B10320DAE72068016841F4007157
:10104000016020680169606A421C62620170208D43
:10105000401E2085608D401E608562B6C9E72A4625
:101060004946204600F082FD0028BCD12068016975
:10107000606A421C62620170208D401E2085608D76
:10108000401E608520684169C94349070AD4016947
:10109000606A421C62620170208D401E2085608D56
:1010A000401E6085208D002886D1202084F83D00D8
:1010B00084F83E6084F83C60002098E7022096E7C0
:1010C000020010000000FFFF040001002DE9F84FAE
:1010D0001F4690468A460446DDF82890FFF748FEF2
:1010E000064694F83D0020287ED119230122434969
:1010F0002046009600F0C5FC00287DD194F83C0005
:10110000012879D0012084F83C0020680168C907D3
:1011100003D1016841F0010101602068016821F4F8
:1011200000610160212084F83D00102084F83E0019
:1011300000252564C4F8248067853148E062608D0D
:10114000208533464A465146204600F029FC28B106
:10115000206C84F83C5004284CD00DE02068416994
:101160008069009030E032464946204600F02FFD6D
:1011700028B1206C042838D00320BDE8F88F606ABD
:10118000411C6162216800780861608D401E6085A5
:10119000208D401E80B2208521684A69D2435207C3
:1011A0000BD450B1606A421C626200780861608DA5
:1011B000401E6085208D401E2085324649462046CF
:1011C00000F038FC0028D4D1208D0028CBD154F871
:1011D0003D0B016841F400710160202004F81E09F4
:1011E000E57765770020C8E706E02068016841F4EC
:1011F000007101600120C0E70220BEE7020010007C
:101200000000FFFF10B586B000210091019102910E
:10121000039100680F4988421AD10F4CA06940F031
:101220000800A061A069694600F008000490C02091
:10123000009012200190032003900848FFF7B4FCAF
:10124000E06940F40010E061E06900F400100490EF
:1012500006B010BD0054004000100240000C0140D8
:1012600002488168027811448160704700000020C4
:10127000074810B5016841F010010160032000F03B
:1012800067F8002000F006F800F024F8002010BDF8
:101290000020024070B50D4D04464FF47A71287855
:1012A000B1FBF0F00A490968B1FBF0F000F0E0FA98
:1012B00048B9102C07D200222146501E00F028F811
:1012C00000206C6070BD012070BD00000000002097
:1012D0000C0000200C4808B5816941F001018161D2
:1012E000816901F001010091C16941F08051C16142
:1012F000C06900F0805000900448416821F0E0612E
:1013000041F00071416008BD001002400000014042
:10131000F0B40E4B1B680C46C3F30223C3F1070560
:10132000042D00D90425191D072901D2002300E04E
:10133000DB1E012606FA05F1491E214099409E4018
:10134000761E16403143F0BC00F0B6BC0CED00E058
:10135000064900F0070208684FF6FF03184040EA0C
:101360000220034A10430860704700000CED00E0C3
:101370000000FA052DE9F047DFF8548105460E46D6
:10138000D8F8000000F00700B0420CD2D8F80010E6
:1013900021F007013143C8F80010D8F8000000F030
:1013A0000700B0426FD128684A4C810712D5400728
:1013B00003D5606840F4E06060602878000703D5DA
:1013C000606840F4605060606068A96820F0F000D8
:1013D000084360602878C00744D06868012816D0A8
:1013E0002168022816D0890700294CDA616821F0AB
:1013F000030101436160FFF7BBFC6968074641F2E6
:10140000883001290ED00229814618D026E02168B3
:101410008903E9E78901E7E7FFF7AAFCC11B494512
:1014200001D918E081466068C0F381000128F3D13A
:1014300018E000BFFFF79CFCC11B49450BD8606852
:10144000C0F381000228F5D10CE000BFFFF790FC4B
:10145000C11B494502D90320BDE8F087606810F040
:101460000C0FF3D1D8F80010404601F00701B1424B
:101470000BD9016821F0070131430160006800F0D9
:101480000700B04201D00120E6E72878400705D5E3
:101490006068E96820F4E06008436060287800072D
:1014A00006D56068296920F4605040EAC100606098
:1014B00000F026F86168084AC1F30311515CC84086
:1014C000064908600020FFF7E5FE0020C4E70000A1
:1014D0000020024000100240AC2900080C0000204F
:1014E0000448054900684968044AC1F30221515C77
:1014F000C84070470C00002000100240BC290008C2
:1015000012A185B00FC98DE80F0014A0144A00681D
:1015100004905168134801F00C03042B10D0082BE1
:101520000ED1C1F38343C9031DF803000AD55168E6
:1015300004AAC1F34041515C0A4A5043B0FBF1F0A8
:1015400005B0704708494843FAE700000203040564
:10155000060708090A0B0C0D0E0F101001020000FF
:101560000010024000127A0000093D002DE9F84FFA
:1015700004460078B94DC00748D06868C0F38100C0
:10158000012807D06868C0F38100022809D1686883
:10159000C00306D52868800338D5606800286FD05E
:1015A00034E06068B0F5803F0BD010B1B0F5A02FEB
:1015B00011D0286820F480302860286820F480202A
:1015C00002E0286840F480302860606888B1FFF746
:1015D000CFFB064609E0286840F480202860F0E749
:1015E000FFF7C6FB801B642875D828688003F7D5F1
:1015F0000CE0FFF7BDFB064605E000BFFFF7B8FBB8
:10160000801B6428F0D828688003F7D42078944E93
:1016100080074FF001094FF000083BD5686810F0D3
:101620000C0F07D06868C0F38100022809D16868F0
:10163000C00306D42868800714D5206901281FD16B
:1016400010E02069B0B1C6F80090FFF791FB0746A3
:1016500005E000BFFFF78CFBC01B0228C4D8286838
:101660008007F7D52868616920F0F80040EAC100DA
:1016700028600FE0C6F80080FFF77AFB074606E017
:10168000E9E000BFFFF774FBC01B022823D82868DD
:101690008007F7D4207800072CD57248A169D9B10A
:1016A000C0F80090FFF764FB074604E0FFF760FB1B
:1016B000C01B02280FD8686A8007F7D56A484FF424
:1016C000FA510068B0FBF1F0009000BF0098411E95
:1016D0000091FAD20EE080E0C0F80080FFF748FBEE
:1016E000074604E0FFF744FBC01B022875D8686A70
:1016F0008007F7D42078400760D5E8690027C0004C
:1017000008D4E86940F08050E861E869012700F0FA
:101710008050009055480168C90513D4016883467C
:1017200041F480710160FFF723FB824606E000BFB1
:10173000FFF71EFBA0EB0A0064284ED8DBF8000080
:10174000C005F5D5E06801280AD008B1052813D0F6
:10175000286A20F001002862286A20F0040002E0D4
:10176000286A40F001002862E06841F2883B98B1A5
:10177000FFF7FEFA82460BE0286A40F00400286278
:10178000EEE700BFFFF7F4FAA0EB0A0159455AD87B
:10179000286A8007F6D50CE0FFF7EAFA824605E0F2
:1017A000FFF7E6FAA0EB0A0159454CD8286A8007F2
:1017B000F6D41FB1E86920F08050E861E06988B391
:1017C0006968C1F38101022945D00228C6F860800A
:1017D00004D0FFF7CDFA044638E034E0FFF7C8FA4A
:1017E000074604E0FFF7C4FAC01B02282BD828687C
:1017F0008001F7D4206AB0F5803F05D16868A16800
:1018000020F4003008436860D4E90801084369689F
:1018100021F4741108436860C6F86090FFF7A8FAD5
:10182000044606E015E000BFFFF7A2FA001B0228FD
:1018300009D828688001F7D50BE000BFFFF798FAB8
:10184000001B022802D90320BDE8F88F2868800118
:10185000F4D40020F8E70120F6E700000010024071
:1018600000004242800442420C0000200070004010
:1018700010B5401EB0F1807F01D3012010BD4FF0A4
:10188000E02460610F21601700F016FA0020A061CB
:1018900007202061002010BDFEE701684A69D2439D
:1018A00052050CD46FF480624A6104210164002166
:1018B00040F8301F2022427301730120704700203E
:1018C00070472DE9F84F0446C06A1E4692460D4601
:1018D00021680A6842F480620A60042807D001285F
:1018E00005D010F5803F02D0206B112804D120686C
:1018F000016841F4807101604FF0011853460022E5
:1019000041462046009600F0BCF8B8BB206908F1BB
:101910000109B0F5804F12D00620216800EAD517E2
:1019200047F0F00008613346524608F107012046AF
:1019300000F0D8F838B1206C04282FD01EE0E8B2AF
:1019400040F001001FE02168E8B2086133465246CA
:101950004946204600F0C6F80028ECD120684169CD
:1019600081690091016841F4807101605346002251
:1019700041462046009600F084F810B10320BDE8EF
:10198000F88F47F0F1002168086133465246494616
:10199000204600F0A7F80028CDD1F0E70120EEE7BF
:1019A000F8B50446C06A1E460D461746042807D0FF
:1019B000012805D010F5803F02D0206B122804D1F9
:1019C0002068016841F480710160134600224FF0E5
:1019D00001112046009600F054F8A0B92069B0F536
:1019E000804F12D00620216800EAD51040F0F000A8
:1019F000086133463A460E49204600F073F838B184
:101A0000206C042811D00320F8BD05F0FE0000E092
:101A1000E8B221680861064933463A46891F2046E4
:101A200000F060F80028EBD1F8BD0120F8BD0000FF
:101A30000800010070B516460D4604461AE020461F
:101A4000FFF72BFF08B1012070BD681C12D025B133
:101A5000FFF78EF9801BA8420CD954F8400F40F0D4
:101A6000200044F8100900202060202161732073B9
:101A7000032070BD20684069C0434007DFD40020C8
:101A800070BD2DE9F0471E4690460D460446C1F351
:101A90000747DDF8209012E0701C10D02EB1FFF740
:101AA00067F9A0EB0900B04209D9002044F8300FD3
:101AB00020216173A07320730320BDE8F0872068A4
:101AC000012F0AD0806925EA00000004000C06D02E
:101AD00000214145E0D00020EFE74069F3E7012114
:101AE000F7E700002DE9F0479A4691460D46044677
:101AF00000264FF02008C1F307472AE0206840691C
:101B0000C043400512D42068016841F400710160AF
:101B100021686FF48060486104202064266384F8A3
:101B20003D8084F83C600120BDE8F087B9F1FF3FBB
:101B30000FD0B9F1000F05D0FFF71AF9A0EB0A0199
:101B4000494506D944F8306F84F80D802673032088
:101B5000EAE72068012F07D0D0F8180025EA000036
:101B60000004000CE0D0C9E74069F7E72DE9F04137
:101B7000002590460E460446202721E04069C043D8
:101B8000C0060CD421686FF01000486125642563FD
:101B900084F83D7084F83C500120BDE8F0812EB1FE
:101BA000FFF7E6F8A0EB0800B04209D954F8400F5F
:101BB00040F0200044F80409677025700320ECE72A
:101BC00020684169C9434906D8D40020E5E770B5CB
:101BD00016460D4604461AE02046FFF75EFE08B1A1
:101BE000012070BD681C12D025B1FFF7C1F8801B21
:101BF000A8420CD954F8400F40F0200044F81009D6
:101C000000202060202161732073032070BD2068B4
:101C10004069C0430006DFD4002070BD2DE9F041CB
:101C200086B00024204800940194029403948169B2
:101C300041F010018161816901F010010491816915
:101C400041F004018161816901F00401049181691D
:101C500041F0080181618069144F00F008004FF4E1
:101C600000550490002229463846FFF77BF8DFF83C
:101C7000408000223F214046FFF774F8009502267D
:101C800001250396CDE9015469463846FEF78CFFDD
:101C90003F20CDE90005CDE9024669464046FEF702
:101CA00083FF06B0BDE8F081001002400010014043
:101CB00000080140FEE770470907090E002806DA10
:101CC00000F00F0000F1E02080F8141D704700F1D3
:101CD000E02080F80014704770477047FFF7C0BAE3
:101CE00030B58FB028216846FEF733FA14210AA8D0
:101CF000FEF72FFA02240120049000941020059092
:101D000000254FF46010CDE9085007946846FFF7AE
:101D10002DFC0AA90F2081E831006002CDE90D05F4
:101D200002210AA8FFF726FB0FB030BD0D4801685D
:101D300041F00101016041680B4A114041600168B6
:101D40000A4A11400160016821F480210160416864
:101D500021F4FE0141604FF41F0181600449C0037A
:101D600008607047001002400000FFF8FFFFF6FE19
:101D700008ED00E0FEE700000FB4084B10B504A921
:101D800002AA039800F0DEF8044602A9002000F041
:101D900070FC204610BC5DF814FB000073260008A0
:101DA00002E008C8121F08C1002AFAD17047704724
:101DB000002001E001C1121F002AFBD17047000082
:101DC0002DE9FF5F82B00021DDE90430020DDDF86E
:101DD00040B0034318D044F61050A2F2FF32424301
:101DE0001514119801281FD0A5EB0B00401C5FEAC9
:101DF000000A4FF000064E4FDFF83891B0465046CB
:101E000015D5CAF1000413E0119801244AA3012852
:101E100001D16FEA0B010298119AC0E90031C0E9C3
:101E2000024206B0BDE8F09FCBF10000DFE70446B8
:101E30000021404A491842EB0450CDE9001012E05D
:101E4000E00707D032463B4640464946FEF7FBFADC
:101E50008046894632463B4610461946FEF7F3FA5D
:101E600006460F466410002CEAD1DDE90401DDE9E5
:101E70000023BAF1000F06DAFEF7E5FA42464B46B8
:101E8000FEF7E1FA05E0FEF750FB42464B46FEF74F
:101E90004CFB04460E460022284BFEF705FD03D8F6
:101EA0004FF0FF30014607E00022254B2046314627
:101EB000FEF722FAFEF7E0FC102409E0002C0ADB12
:101EC0000A220023FEF7F2FB039B30321A55641EF0
:101ED00050EA0102F2D1641C039AC4F111031444C4
:101EE000119A012A03D0012208430DD10AE00843C8
:101EF00004D000204FF0110B119072E7A3EB0B05FB
:101F00006D1E0DE05B4504DD4FF0000205F101059B
:101F100004E003DA4FF00002A5F10105002AECD03D
:101F200002981199C0E90231C0E9004579E7000043
:101F3000000014400000F03F300000000000F043BB
:101F40000000E03F2DE9FF4F95B09B4689460646CD
:101F500000250FE2252877D100242746F84A0121E1
:101F6000059400E0044316F8013F203B01FA03F01A
:101F70001042F7D130782A2811D06FF02F03307833
:101F8000A0F13002092A16D8059A44F0020402EBA7
:101F9000820203EB42021044761C0590EFE759F8E9
:101FA000042B0592002A03DA504244F400540590B1
:101FB00044F00204761C30782E2816D116F8010F52
:101FC00044F004042A280DD06FF02F023078A0F1DD
:101FD0003003092B09D807EB870302EB4303C7182B
:101FE000761CF3E759F8047B761C30786C280FD008
:101FF00006DC4C2817D068280DD06A2814D104E0DC
:10200000742810D07A280FD10DE044F400140AE0AF
:1020100044F4801401E044F440147278824202D106
:1020200004F58014761C761C307866280BD013DCFF
:10203000582877D009DC002875D04528F6D04628E6
:10204000F4D047281AD19DE118E0632835D06428E0
:1020500079D0652812D195E1702873D008DC672803
:10206000F1D069286FD06E280DD06F2806D1B5E069
:1020700073282CD0752875D0782874D05A461799B3
:1020800090476D1C75E1C4F30250022809D0032863
:102090000DD0D9F8001004280DD00D6009F1040905
:1020A00067E1D9F80010EA17C1E90052F6E7D9F85C
:1020B00000100D80F2E70D70F0E719F8041B8DF8A1
:1020C000001000208DF80100EA46012003E059F8D5
:1020D00004AB4FF0FF3061074FF0000102D40DE078
:1020E00008F101018846B9420FDA8045F8DB1AF899
:1020F00008100029F4D108E008F101018846814266
:10210000FADB1AF808100029F6D105985B46A0EB17
:10211000080721463846179A00F094FA284400EB45
:10212000080507E04DE029E10DE01AF8010B5A46D9
:1021300017999047B8F10108F7D25B462146384617
:10214000179A13E142E00A220092C4F302524FF0C0
:10215000000A022A08D059F804CB032A4FEAEC718E
:102160000AD00DE029E02AE009F1070121F0070279
:10217000F2E802C1914609E00FFA8CFC4FEAEC71DB
:10218000042A03D14FFA8CFC4FEAEC71002907DADC
:102190000A460021DCF1000C61EB02012D2202E075
:1021A000220504D52B228DF80420012203E0E2074A
:1021B00001D02022F7E7904659E00A2102E01022E0
:1021C0000DE010214FF0000A00910BE010224FF0BB
:1021D000000A44F004040827009203E008224FF0AC
:1021E000000A0092C4F30252022A05D059F804CB27
:1021F0000021032A08D009E009F1070121F00702B4
:10220000F2E802C1914605E01FFA8CFC042A01D1D4
:102210000CF0FF0C4FF00008220728D5702806D0DC
:10222000009B83F0100353EA0A0305D00EE040221E
:102230008DF80420012208E05CEA010206D0302279
:102240008DF804208DF8050002229046009B83F053
:10225000080353EA0A030AD15CEA010201D16207CA
:1022600005D530228DF804204FF001087F1E582834
:1022700004D034A003900EA802900DE036A0F9E738
:1022800053466046009AFEF711FA84460398825C32
:102290000298401E029002705CEA0100F0D10298A0
:1022A00006A9081A00F1200A600702D524F4803438
:1022B00000E00127574502DDA7EB0A0000E00020FF
:1022C00000EB0A01009005984144401A0590E00394
:1022D00006D45B462146179A059800F0B3F90544E9
:1022E000002706E001A85A46C05D179990476D1C6B
:1022F0007F1C4745F6DBE0030CD55B462146179A69
:10230000059800F09FF9054404E030205A461799DB
:1023100090476D1C0099481E00900029F5DC08E0EC
:10232000029802995A460078491C029117999047E1
:102330006D1CBAF10001AAF1010AF1DC65E10000AF
:10234000092801003031323334353637383961628B
:10235000636465660000000030313233343536374F
:1023600038394142434445460000000000F058F926
:102370000544761C307800287FF4ECAD19B028466F
:10238000BDE8F08F620700D4062709F1070222F0AA
:10239000070CFCE80223E14603F000485FEA080C62
:1023A00002D00FF2702C0DE05FEA045C02D50FF250
:1023B000682C07E05FEAC47C02D00FF2602C01E0D9
:1023C000AFF2700C4FF0FF3823F00043CDF850C04F
:1023D00065280CD006DC452809D046281DD04728A2
:1023E0003DD13DE0662818D067287ED138E0002135
:1023F000112F01DB112000E0781CCDE9000106A9B6
:102400000EA8FFF7DDFCDDE90F010E9A0391002114
:10241000009207F1010A04914DE04FF0004000974F
:10242000CDE9011006A90EA8FFF7CAFCDDE90F02ED
:1024300003920E9B11990022DDF80CA000930492E8
:1024400011B9791C00EB010AB7EB0A0004D4C0F102
:10245000FF3007F1010A0490AAEB0700019044E065
:10246000012F00DA01270021112F01DD112000E0EA
:102470003846CDE9000106A90EA8FFF7A1FCDDE969
:102480000F010E9A0391002104910092BA46210790
:102490000CD40399514500DA8A46BAF1010F05DDE3
:1024A000009AAAF10101515C302908D0B84202DA41
:1024B00010F1040F06DA0121CDE9011015E0AAF1AF
:1024C0000101E9E7002805DC049901440491AAEB25
:1024D000000102E0411C514500DD8A460499401A82
:1024E000401C01904FF000400290200704D4019856
:1024F000504501DBCDF8048000208DF84F00029894
:102500000DF14F07B0F1004F25D02B200E9002980F
:102510004FF0020800280CDA404202902D200E9065
:1025200007E00A210298FEF7ABF83031029007F875
:10253000011DB8F10001A8F10108F2DC02980028A1
:10254000EFD1791E0E980870307800F0200040F02E
:10255000450007F8020D12A8C01B00F107081498E7
:10256000007800B1012000EB0A01019801EBE07155
:1025700005984144401A401E0590E00306D45B468E
:102580002146179A059800F05DF8054414980078E4
:1025900018B15A46179990476D1CE00324D55B4645
:1025A0002146179A059800F04DF805441CE0049860
:1025B000002807DBDDE90301884203DD0098405C69
:1025C000179901E0179930205A469047049805F171
:1025D0000105401C04900198401E019004D12E205A
:1025E0005A46179990476D1CBAF10001AAF1010AE9
:1025F000DDDC05E017F8010B5A46179990476D1C72
:10260000B8F10001A8F10108F4DC5B462146179AF5
:102610000598ABE62D0000002B0000002000000014
:102620002DE9F041044600251E461746880404D4CF
:1026300005E039462020B0476D1C641EF9D52846B8
:10264000BDE8F0812DE9F041044600251E46904684
:10265000C80301D5302700E02027880404D505E011
:1026600041463846B0476D1C641EF9D52846BDE882
:10267000F0810A68531C0B601070704710B5012080
:10268000FEF780FABDE81040012000F095B810B5C3
:10269000C820FEF777FAC820FEF774FA302000F061
:1026A0002FF81E20FEF76EFA302000F029F81E20C9
:1026B000FEF768FA302000F023F81E20FEF762FAD9
:1026C000202000F01DF80120FEF75CFA282000F021
:1026D00073F80120FEF756FA062000F06DF801208D
:1026E000FEF750FA0C2000F067F80120FEF74AFAD6
:1026F000012000F061F8BDE810400120FEF742BA69
:1027000010B50E4C216821F03F012160216841EA9B
:1027100010112160206820F010002060206840F037
:10272000200020600120FEF72DFA206820F0200014
:102730002060BDE810400120FEF724BA0C080140DB
:1027400070B51C4C0546216821F03F0121602168CD
:1027500041EA10112160206840F0100020602068DC
:1027600040F0200020600120FEF70CFA206820F0E5
:10277000200020600120FEF705FA216805F00F0017
:1027800021F03F012160216801432160206840F071
:1027900010002060206840F0200020600120FEF73B
:1027A000F1F9206820F020002060BDE87040012091
:1027B000FEF7E8B90C08014070B51C4C05462168CD
:1027C00021F03F012160216841EA10112160206859
:1027D00020F010002060206840F0200020600120E0
:1027E000FEF7D0F9206820F0200020600120FEF7DD
:1027F000C9F9216805F00F0021F03F01216021682F
:1028000001432160206820F010002060206840F023
:10281000200020600120FEF7B5F9206820F020009C
:102820002060BDE870400120FEF7ACB90C08014003
:10283000FEF71EFDFFF754FAFFF7F0F91C481B499D
:102840004FF4804201601B49416000218160C0E972
:10285000031241618161C1610162FEF78FFAFFF7E6
:1028600016FFFFF70BFF14A000F060F8112000F036
:1028700045F814A000F04DF813A000F067F85120BF
:1028800000F03CF813A000F044F813A000F06EF83C
:10289000252000F033F812A000F03BF811A000F062
:1028A00075F800BFFEF7F0F8FCE7000000540040A8
:1028B00048000020A0860100566F6C746167653A7D
:1028C000000000005B565D0043757272656E743ADD
:1028D000000000005B415D00506F7765723A0000B8
:1028E0005B575D0044657669636520556E6465726B
:1028F0002054657374204F4B0000000010B504464F
:102900000120FEF73FF944F08000BDE81040FFF7DA
:1029100053BF70B50546002403E0FFF711FF641CA8
:10292000E4B2285D0028F8D170BD000070B50546FE
:102930000020FFF7E3FF002404E000BFFFF700FFE3
:10294000641CE4B2285D0028F8D170BD70B505465E
:102950004020FFF7D3FF002404E000BFFFF7F0FEA4
:10296000641CE4B2285D0028F8D170BD70B505463E
:102970001420FFF7C3FF002404E000BFFFF7E0FED0
:10298000641CE4B2285D0028F8D170BD70B505461E
:102990005420FFF7B3FF002404E000BFFFF7D0FE90
:1029A000641CE4B2285D0028F8D170BD000000006E
:1029B00000000000010203040607080900000000EF
:1029C00001020304E4290008000000204800000080
:1029D000A01D00082C2A0008480000205804000010
:1029E000B01D000801000000100000000000000001
:1029F00000A24A0400000001E3A30000000187A335
:102A000000000000000000000000000000000000C6
:102A100000000000000000000000000000000000B6
:0C2A2000000000000000000000000000AA
:04000005080000ED02
:00000001FF
